:020000040800F2
:100000000050002041140008D5130008D713000841
:10001000D9130008DB130008DD13000800000000FE
:10002000000000000000000000000000DF130008D6
:10003000E113000800000000E3130008E5130008C6
:10004000891400088914000889140008891400081C
:10005000891400088914000889140008891400080C
:1000600089140008891400088914000889140008FC
:1000700089140008891400088914000889140008EC
:100080008914000889140008E9130008891400087D
:1000900089140008891400088914000889140008CC
:1000A00089140008891400088914000889140008BC
:1000B00089140008891400088914000889140008AC
:1000C000891400088914000889140008891400089C
:1000D000891400088914000889140008891400088C
:1000E0008914000889140008891400080000000021
:1000F0000000000000000000000000000000000000
:0C01000000000000000000005FF808F1A3
:10010C0010B5054C237833B9044B13B10448AFF345
:10011C0000800123237010BD0C00002000000000A3
:10012C00E414000808B5034B1BB103490348AFF3B3
:10013C00008008BD0000000010000020E41400083E
:10014C0038B50E4B054618784FF47A73B3FBF0F3C1
:10015C000B4A1068B0FBF3F000F086FB044658B96C
:10016C000F2D09D8024629464FF0FF3000F03CFB1A
:10017C00044B20461D6038BD012038BD0000002016
:10018C000800002004000020074A08B5136803206B
:10019C0043F01003136000F015FB0020FFF7D0FFB5
:1001AC0001F0F0F8002008BD00200240034A044B87
:1001BC0011681B780B441360704700BF28000020A7
:1001CC0000000020014B1868704700BF2800002079
:1001DC0038B50446FFF7F6FF0546631C1EBF044BFB
:1001EC001B78E418FFF7EEFF401B8442FAD838BDA9
:1001FC00000000200368D86C704770477047036894
:10020C0010B55A680446900627D51A68910724D56C
:10021C00A26AD2065EBFA26A42F40072A2629A6817
:10022C0002F46022B2F5602F10D1E26872B95A68FC
:10023C0022F020025A60A36A23F48073A362A36A9B
:10024C00DB045EBFA36A43F00103A3622046FFF701
:10025C00D4FF6FF0120223681A6023685A681006E4
:10026C0030D51A6851072DD5A26AD2065EBFA26A94
:10027C0042F40052A2629A6802F4E042B2F5E04FF6
:10028C000AD05A68500516D49A6802F46022B2F566
:10029C00602F10D1E26872B95A6822F080025A605D
:1002AC00A36A23F48053A362A36AD9055EBFA36A31
:1002BC0043F00103A362204600F082FA6FF00C02B7
:1002CC0023681A6023685A6852060DD51B68DB0731
:1002DC000AD5A36A204643F48033A362FFF78EFF4E
:1002EC006FF0010223681A6010BD0000002373B583
:1002FC00019390F82430012B74D001234D6880F8C1
:10030C002430062D02684FEA85030C6825D82B444F
:10031C001F25566B053B9D4026EA050504FA03F3A1
:10032C002B435363092C4FEA44038D682FD90726BE
:10033C002344D1681E3B9E4021EA060105FA03F3D3
:10034C000B43D360A4F11003012B2BD90023002203
:10035C0080F82420184602B070BD0C2D0BD82B440D
:10036C001F25166B233B9D4026EA050504FA03F373
:10037C002B431363D6E72B441F25D66A413B9D4084
:10038C0026EA050504FA03F32B43D362CAE70726D2
:10039C00116923449E4021EA060105FA03F30B433D
:1003AC001361CFE7104B9A4216D193681B02CDD440
:1003BC009368102C43F400039360C7D10B4B0C4A89
:1003CC001B68B3FBF2F20A2353430193019B002BEE
:1003DC00BCD0019B013BF8E7836A43F020038362A6
:1003EC000123B4E70223B5E70024014008000020F4
:1003FC0040420F0090F8243030B5012B1DD0012362
:10040C000A6880F824308B68012B03685C680CBF89
:10041C0044F0400424F040045C604C685D68224366
:10042C00074C2C4022435A60CA685A620A699A6285
:10043C00002380F82430184630BD022030BD00BFA8
:10044C00E0FD3FFF002373B50193036804469A68EF
:10045C00D20702D5002002B070BD9A6842F00102AA
:10046C009A60124B124A1B68B3FBF2F30193019B87
:10047C00C3B9FFF7A7FE064623689D6815F0010572
:10048C00E8D1FFF79FFE801B0228F5D9A36A84F8F8
:10049C00245043F01003A362E36A012043F00103EC
:1004AC00E362D8E7019B013BE0E700BF08000020B6
:1004BC0040420F0090F8243010B5012B044654D064
:1004CC00012380F82430FFF7BDFF002849D1A36A2F
:1004DC00274A23F4407323F0010343F48073A3628F
:1004EC002368934204D123494A6812F4702F2ED109
:1004FC00A26A22F48012A2625A68520541BFA26A13
:10050C0022F4405242F48052A262A26A12F4805247
:10051C001CBFE26A22F00602E262002284F8242068
:10052C006FF002021A609A6802F46022B2F5602F32
:10053C0013D10F4A934205D1A2F58062526812F48E
:10054C00702F0AD19A6842F4A0029A6010BDA26A78
:10055C0042F48012A2624A68CFE79A6842F4801291
:10056C00F3E7002384F8243010BD022010BD00BF37
:10057C00002801400024014038B5036804469A68FD
:10058C00D20701D4002038BD9A6822F001029A608B
:10059C00FFF718FE054623689B68DB07F2D5FFF7CB
:1005AC0011FE401B0228F6D9A36A012043F0100368
:1005BC00A362E36A43F00103E36238BD70B50446FD
:1005CC00002871D0836A23B9C36280F8243000F00C
:1005DC0003FE2046FFF7D0FFA36A13F0100FA36AA7
:1005EC0064D1002862D1E16923F48853626823F056
:1005FC00020343F002030A43A168A362E368B1F566
:10060C00807F42EA430238D0012914BF06464FF4DA
:10061C0080766569012D07D1002B30D1A369013B90
:10062C0046EA433545F400662368B1F5807F5D6882
:10063C0025F4694545EA06055D609E681D4D05EA91
:10064C00060545EA02059D6001D0012920D12169EA
:10065C0001390905DD6A25F470052943D9629968C9
:10066C00154B0B409A4215D10023E362A36A23F089
:10067C00030343F00103A36270BD0E46C9E7A36AEE
:10068C0043F02003A362E36A43F00103E362CBE788
:10069C000021DFE7A36A23F0120343F01003A362E7
:1006AC00E36A43F00103E362012070BD43F01003E1
:1006BC00A362F9E7FDF7E1FFFE0E1FFF90F824306F
:1006CC0010B5012B044611D0012380F82430FFF71C
:1006DC0053FF38B9A36A23F4885323F0010343F082
:1006EC000103A362002384F8243010BD022010BD46
:1006FC00002373B5019390F824300446012B5AD093
:10070C00012380F82430FFF737FF0546002832D14B
:10071C00A36A022023F4885323F0020343F002035C
:10072C00A362264B1E6800F0A1FCB6FBF0F0400063
:10073C000190019B1BBB2046FFF784FE2268936847
:10074C0043F008039360FFF73DFD064623689A6863
:10075C00120718D49A6842F004029A60FFF732FD2F
:10076C00064623689B685B071FD4A36A23F0030328
:10077C0043F00103A362002384F8243012E0019BB0
:10078C00013B0193D5E7FFF71DFD801B0A28DDD93E
:10079C00A36A012523F0120343F01003A362002384
:1007AC0084F82430284602B070BDFFF70BFD801B87
:1007BC000A28D6D9ECE70225F4E700BF0800002090
:1007CC0070470000074A0002D36800F4E06023F48D
:1007DC00E0631B041B0C43F0BF6343F4003303437F
:1007EC00D360704700ED00E0174B30B5DC68C4F304
:1007FC000224C4F10703251D042B28BF0423062D56
:10080C004FF0010598BF002405FA03F303F1FF3301
:10081C0088BF033C1940A14005FA04F4013C224076
:10082C00002842EA01024FEA0212AFBF00F1604019
:10083C00064B00F00F00D2B2A5BFD2B200F561405A
:10084C001A5480F8002330BD00ED00E014ED00E0F8
:10085C000123420900F01F0003FA00F0014B43F89A
:10086C002200704700E100E00138B0F1807F0AD22D
:10087C00F021064B064A586082F82310002007220C
:10088C0098601A6070470120704700BF10E000E0CC
:10089C0000ED00E02DE9F74F00221646654BDFF81E
:1008AC00A4E1DFF8A4C14FF001080C6808FA06F8BF
:1008BC0008EA0404A0457FD14D68122D00F0AF80EA
:1008CC0000F28880022D00F0A7807CD8002D00F06B
:1008DC008E80012D00F09E804FF00F09FF2C93BFEE
:1008EC00824606F18045083DD0F800B092BFB500B5
:1008FC00D0F804B0AD0009FA05F82BEA080802FAA2
:10090C0005F588BF00F1040A48EA0505CAF800504D
:10091C00D1F804A01AF0805F4ED0474D464FAD6918
:10092C0026F0030845F00105BD61BD6908F180485A
:10093C0005F00105019508F5803806F0030B019DC3
:10094C004FEA8B0BD8F8085009FA0BF925EA09097C
:10095C003A4DA84268D005F58065A84266D005F5E9
:10096C008065A84264D005F58065A8420CBF0325BC
:10097C00042505FA0BF545EA0905C8F808501D6869
:10098C001AF4803F14BF2543A5431D605D681AF41B
:10099C00003F14BF2543A5435D609D681AF4801F7A
:1009AC0014BF2543A5439D60DD681AF4001F14BFD6
:1009BC002C4325EA0404DC600136102E7FF473AF5F
:1009CC0003B0BDE8F08F032D22D0112D84D1CA685D
:1009DC00043281E71A4FBD4209D012D8DFF86C906F
:1009EC004D4504D009F580394D457FF475AF8A68C3
:1009FC00C2B1012A0CBFC0F81080C0F814800822C4
:100A0C006AE77545F3D06545F1D0DFF84490EBE724
:100A1C00002261E7CA685FE7CA6808325CE7CA6807
:100A2C000C3259E7042257E70025A2E70125A0E77D
:100A3C0002259EE70004014000100240000801401E
:100A4C0000002110000031100000321000001110C5
:100A5C00000022100AB1016170470904FBE7C3686A
:100A6C005940C1607047000003682DE9F341DB0772
:100A7C00054610D42B689F075ED42B68190700F12C
:100A8C0095802B685A0700F1BF80EA69002A40F074
:100A9C002D81002014E0904C636803F00C03042BB0
:100AAC0007D0636803F00C03082B0CD16368DE03DA
:100ABC0009D523689C03DDD56B68002BDAD10120A6
:100ACC0002B0BDE8F0816B68B3F5803F10D12368AC
:100ADC0043F480332360FFF775FB064623689803C5
:100AEC00C8D4FFF76FFB801B6428F7D90320E7E716
:100AFC009BB9236823F480332360236823F4802379
:100B0C002360FFF75FFB064623689903B2D5FFF716
:100B1C0059FB801B6428F7D9E8E7B3F5A02F2368AD
:100B2C0003D143F480232360D1E723F48033236083
:100B3C00236823F48023CDE7674C636813F00C0F14
:100B4C0007D0636803F00C03082B10D16368DA0339
:100B5C000DD423689B0702D52B69012BAFD12368D9
:100B6C006A6923F0F80343EAC203236085E72A6924
:100B7C005A4B6AB101221A60FFF724FB0646236820
:100B8C009F07ECD4FFF71EFB801B0228F7D9ADE7BB
:100B9C001A60FFF717FB0646236898077FF56DAFC1
:100BAC00FFF710FB801B0228F6D99FE7AA694A4C75
:100BBC004B4BDAB101221A60FFF704FB0646636A5D
:100BCC009B070DD54FF4FA52464B1B68B3FBF2F35F
:100BDC00019300BF019B5A1E0192002BF9D150E7E3
:100BEC00FFF7F0FA801B0228E9D97FE71A60FFF7BC
:100BFC00E9FA0646636A9F077FF543AFFFF7E2FA0F
:100C0C00801B0228F6D971E7334CE369D80024D451
:100C1C000127E36943F08053E361E36903F08053F8
:100C2C000093009B304E3368D90518D5EB68012B27
:100C3C0026D1236A43F001032362FFF7C3FA41F282
:100C4C0088368046236A9B073FD5002F3FF41DAFA3
:100C5C00E36923F08053E36117E70027E2E7336889
:100C6C0043F480733360FFF7ADFA80463368DA05DE
:100C7C00DCD4FFF7A7FAA0EB08006428F6D935E717
:100C8C00ABB9236A41F2883823F001032362236A4B
:100C9C0023F004032362FFF795FA0646236A9807AC
:100CAC00D3D5FFF78FFA801B4045F7D91EE7052BEC
:100CBC00236A03D143F004032362BAE723F0010350
:100CCC002362236A23F00403B6E7FFF77BFAA0EB59
:100CDC000800B042B6D909E70010024000004242B9
:100CEC00800442420800002000700040224C6368DF
:100CFC0003F00C03082B3FF4E2AE00231F4E022A34
:100D0C0033602BD1FFF75EFA0746236899011FD495
:100D1C002B6AB3F5803F05D16268A96822F40032D2
:100D2C000A436260696A62680B4322F474121343CB
:100D3C00636001233360FFF745FA054623689A0187
:100D4C003FF5A7AEFFF73EFA401B0228F6D9CDE6D9
:100D5C00FFF738FAC01B0228D7D9C7E6FFF732FADB
:100D6C00054623689B017FF594AEFFF72BFA401BD9
:100D7C000228F6D9BAE600BF0010024060004242D9
:100D8C0030B5194B87B002AC03F110052246186838
:100D9C005968083303C2AB421446F7D101238DF8CE
:100DAC000430022311498DF805304B6803F00C0216
:100DBC00082A17D1C3F3834206A80244DB0312F8B6
:100DCC00102C0CD54B680A48C3F34043504306AA79
:100DDC00134413F8143CB0FBF3F007B030BD0548D6
:100DEC005043FAE70248F8E7FC14000800100240F0
:100DFC0000127A0000093D00544A2DE9F0411368B5
:100E0C00054603F007038B420E462AD329688C074C
:100E1C0034D4CA0747D44D4A136803F007039E42E3
:100E2C00C0F082802A684A4C12F0040F40F0878090
:100E3C00130706D563682A6923F4605343EAC20397
:100E4C006360FFF79DFF6368424AC3F30313D35CEF
:100E5C00D840414B18600020FFF772F90020BDE824
:100E6C00F081136823F007030B431360136803F03E
:100E7C0007039942CAD00120BDE8F081344B11F030
:100E8C00040F1EBF5A6842F4E0625A60080742BF62
:100E9C005A6842F460525A605A68A86822F0F0020C
:100EAC0002435A60B5E76A68294C012A23681CD1B1
:100EBC0013F4003FDFD0636841F2883823F003035A
:100ECC0013436360FFF77EF96B680746012B14D15F
:100EDC00636803F00C03042B9DD0FFF773F9C01B60
:100EEC004045F5D90320BDE8F081022A02D113F068
:100EFC00007FDFE713F0020FDCE7022B0FD16368F2
:100F0C0003F00C03082B86D0FFF75CF9C01B40459F
:100F1C00F5D9E7E7FFF756F9C01B4045E2D86368FF
:100F2C0013F00C0FF6D176E7136823F00703334365
:100F3C001360136803F007039E429CD172E7636849
:100F4C00E96823F4E0630B43636071E7002002401F
:100F5C00001002401C15000808000020044B054A34
:100F6C005B68C3F3C223D35C034A1068D840704754
:100F7C00001002402C1500080800002003682DE921
:100F8C00F341D907054620D5354CE369DA0032D454
:100F9C000127E36943F08053E361E36903F0805375
:100FAC000193019B2F4E3368DB0526D5236A13F47E
:100FBC00407336D1236A6A6823F440731343236267
:100FCC001FB1E36923F08053E3612868830706D5DA
:100FDC00234AA968536823F440430B43536010F031
:100FEC0010001BD01E4AE9685368002023F48003CC
:100FFC000B43536012E00027D4E7336843F480734B
:10100C003360FFF7DFF880463368D805CED4FFF79E
:10101C00D9F8A0EB08006428F6D9032002B0BDE88B
:10102C00F0816A6802F440729342C3D001200E4AE8
:10103C00236A1060002023F4407110602162D907EC
:10104C00B8D5FFF7BFF841F288380646236A9A07ED
:10105C00B0D4FFF7B7F8801B4045F7D9DDE700BFE8
:10106C0000100240007000404004424270B504463B
:10107C00354B86B002AD03F110062A461868596844
:10108C00083303C2B3421546F7D101238DF804305F
:10109C0002239C428DF8053047D0102C17D0012C20
:1010AC004FD140F20231294A136A1940B1F5817FC0
:1010BC0044D003F44073B3F5007F2DD149F6404082
:1010CC00536A13F0020F08BF002006B070BD1F4B0F
:1010DC005968186810F08070F7D0C1F3834206A8E5
:1010EC00024412F8100CCA0341BF5A6806A9C2F395
:1010FC004042521844BF12F8141C154A5B684CBF8E
:10110C00B2FBF1F2134A5B0202FB00F0DDD40323C5
:10111C004000B0FBF3F0D8E7B3F5407F11D1136872
:10112C004FF2244013F4003FCDE7FFF717FF074BB6
:10113C005B68C3F3813301335B00EAE74FF4004093
:10114C00C3E70020C1E700BF0C15000800100240E7
:10115C0000127A0000093D0030B58BB01822002136
:10116C0004A800F0B1F91948194B002403604FF49E
:10117C006023C36101230194029403948460C460CE
:10118C00446144600361FFF719FA08B100F0F8F804
:10119C001025104B0DEB05010C4804930794089493
:1011AC0005950694FFF726F908B100F0E9F801233C
:1011BC000293002301A9054801950393FFF796F8C4
:1011CC0008B100F0DDF80BB030BD00BF2C000020E2
:1011DC00002401400002800030B51024054687B081
:1011EC002246002102A800F06FF92A68134B9A429C
:1011FC0022D103F56C439A6902A942F400729A61F8
:10120C009A690F4802F400720092009A9A6942F0AF
:10121C0004029A619B69029403F004030193019BFD
:10122C0003230393FFF736FB002212201146FFF72E
:10123C00DBFA1220FFF70CFB07B030BD0024014095
:10124C0000080140102210B588B00DEB02000021FF
:10125C0000F03AF9184B194C9A69204642F01002EA
:10126C009A619A694FF4005102F010020192019AAE
:10127C009A6942F020029A619A6902F02002029265
:10128C00029A9A6942F004029A619B69002203F067
:10129C0004030393039BFFF7DDFB4FF4005304930C
:1012AC000123059300230693022304A920460793E8
:1012BC00FFF7F0FA08B010BD00100240001001401A
:1012CC00282210B594B00DEB0200002100F0FCF8C0
:1012DC00142200210DEB020000F0F6F80021102280
:1012EC0001A800F0F1F8022401224FF480330AA87F
:1012FC000A920E920B9312931194FFF7B5FB0F23E6
:10130C0005938023002107934FF4806305A808936D
:10131C0009910694FFF770FD4FF4804301A80194E6
:10132C000393FFF72BFE14B010BD000008B5FEF7B9
:10133C002BFFFFF7C5FFFFF785FFFFF70DFF0D48EC
:10134C00FFF7BCF90B48FFF7D3F90A48FFF7B2F8DF
:10135C00084E094D094C3046FEF74CFF4FF4005136
:10136C0028602046FFF77BFB4FF4FA70FEF730FF46
:10137C00F1E700BF2C0000206000002000100140AD
:10138C00704700000E4B82B09A6942F001029A61DC
:10139C009A6902F001020092009ADA6942F08052D6
:1013AC00DA61DB69074A03F080530193019B5368B0
:1013BC0023F0E06343F00073536002B0704700BF4A
:1013CC0000100240000001407047FEE7FEE7FEE718
:1013DC00FEE7704770477047FEF7E8BE0148FEF71E
:1013EC000EBF00BF2C0000200F4B1A6842F0010208
:1013FC001A6059680D4A0A405A601A6822F08472C1
:10140C0022F480321A601A6822F480221A605A6818
:10141C0022F4FE025A604FF41F029A604FF00062F1
:10142C00034B9A60704700BF001002400000FFF8A9
:10143C0000ED00E0002103E00B4B5B5843500431FE
:10144C000A480B4B42189A42F6D30A4A02E0002390
:10145C0042F8043B084B9A42F9D3FFF7C5FF00F062
:10146C000FF8FFF763FF70473C15000800000020E1
:10147C000C0000200C00002064000020FEE700009F
:10148C0070B500250C4E0D4CA41BA410A54209D11F
:10149C0000F022F800250A4E0A4CA41BA410A54209
:1014AC0005D170BD56F8253098470135EEE756F852
:1014BC00253098470135F2E734150008341500083B
:1014CC00341500083815000803460244934200D135
:1014DC00704703F8011BF9E7F8B500BFF8BC08BC6E
:1014EC009E467047F8B500BFF8BC08BC9E467047D6
:1014FC0002030405060708090A0B0C0D0E0F101049
:10150C0002030405060708090A0B0C0D0E0F101038
:10151C000000000000000000010203040607080997
:08152C000000000001020304AD
:041534003101000879
:041538000D01000899
:0C153C00010000001000000000A24A04A2
:04000005080014419A
:00000001FF
